{
  "contractName": "CryptoLotto",
  "abi": [
    {
      "constant": true,
      "inputs": [
        {
          "name": "",
          "type": "uint256"
        }
      ],
      "name": "lotteryContestantsAddresses",
      "outputs": [
        {
          "name": "",
          "type": "address"
        }
      ],
      "payable": false,
      "stateMutability": "view",
      "type": "function"
    },
    {
      "inputs": [],
      "payable": false,
      "stateMutability": "nonpayable",
      "type": "constructor"
    },
    {
      "constant": false,
      "inputs": [],
      "name": "createLotteryContestant",
      "outputs": [],
      "payable": false,
      "stateMutability": "nonpayable",
      "type": "function"
    },
    {
      "constant": true,
      "inputs": [],
      "name": "getLotteryContestantsAddressesLength",
      "outputs": [
        {
          "name": "",
          "type": "uint256"
        }
      ],
      "payable": false,
      "stateMutability": "view",
      "type": "function"
    },
    {
      "constant": true,
      "inputs": [
        {
          "name": "i",
          "type": "uint256"
        }
      ],
      "name": "getLotteryContestantAddress",
      "outputs": [
        {
          "name": "",
          "type": "address"
        }
      ],
      "payable": false,
      "stateMutability": "view",
      "type": "function"
    },
    {
      "constant": true,
      "inputs": [],
      "name": "isAddressInLottery",
      "outputs": [
        {
          "name": "",
          "type": "bool"
        }
      ],
      "payable": false,
      "stateMutability": "view",
      "type": "function"
    }
  ],
  "bytecode": "0x608060405234801561001057600080fd5b50336000806101000a81548173ffffffffffffffffffffffffffffffffffffffff021916908373ffffffffffffffffffffffffffffffffffffffff1602179055506106c9806100606000396000f30060806040526004361061006d576000357c0100000000000000000000000000000000000000000000000000000000900463ffffffff1680633da3239714610072578063497825d8146100df578063672c11821461014c578063f2446acc14610163578063f8ec0a471461018e575b600080fd5b34801561007e57600080fd5b5061009d600480360381019080803590602001909291905050506101bd565b604051808273ffffffffffffffffffffffffffffffffffffffff1673ffffffffffffffffffffffffffffffffffffffff16815260200191505060405180910390f35b3480156100eb57600080fd5b5061010a60048036038101908080359060200190929190505050610336565b604051808273ffffffffffffffffffffffffffffffffffffffff1673ffffffffffffffffffffffffffffffffffffffff16815260200191505060405180910390f35b34801561015857600080fd5b50610161610374565b005b34801561016f57600080fd5b50610178610500565b6040518082815260200191505060405180910390f35b34801561019a57600080fd5b506101a3610643565b604051808215151515815260200191505060405180910390f35b60008060009054906101000a900473ffffffffffffffffffffffffffffffffffffffff1673ffffffffffffffffffffffffffffffffffffffff163373ffffffffffffffffffffffffffffffffffffffff161415156102f5576040517f08c379a000000000000000000000000000000000000000000000000000000000815260040180806020018281038252606d8152602001807f546869732061646472657373206973206e6f7420746865206f776e6572206f6681526020017f207468697320636f6e74726163742e205468657265666f72652c20746869732081526020017f6164647265737320646f6573206e6f7420686176652061636365737320746f2081526020017f746869732066756e6374696f6e0000000000000000000000000000000000000081525060800191505060405180910390fd5b60018281548110151561030457fe5b9060005260206000200160009054906101000a900473ffffffffffffffffffffffffffffffffffffffff169050919050565b60018181548110151561034557fe5b906000526020600020016000915054906101000a900473ffffffffffffffffffffffffffffffffffffffff1681565b600080600260003373ffffffffffffffffffffffffffffffffffffffff1673ffffffffffffffffffffffffffffffffffffffff16815260200190815260200160002054141515610452576040517f08c379a00000000000000000000000000000000000000000000000000000000081526004018080602001828103825260308152602001807f54686973206164647265737320697320616c7265616479207375626d6974746581526020017f6420696e20746865206c6f74746572790000000000000000000000000000000081525060400191505060405180910390fd5b60013390806001815401808255809150509060018203906000526020600020016000909192909190916101000a81548173ffffffffffffffffffffffffffffffffffffffff021916908373ffffffffffffffffffffffffffffffffffffffff160217905550905080600260003373ffffffffffffffffffffffffffffffffffffffff1673ffffffffffffffffffffffffffffffffffffffff1681526020019081526020016000208190555050565b60008060009054906101000a900473ffffffffffffffffffffffffffffffffffffffff1673ffffffffffffffffffffffffffffffffffffffff163373ffffffffffffffffffffffffffffffffffffffff16141515610638576040517f08c379a000000000000000000000000000000000000000000000000000000000815260040180806020018281038252606d8152602001807f546869732061646472657373206973206e6f7420746865206f776e6572206f6681526020017f207468697320636f6e74726163742e205468657265666f72652c20746869732081526020017f6164647265737320646f6573206e6f7420686176652061636365737320746f2081526020017f746869732066756e6374696f6e0000000000000000000000000000000000000081525060800191505060405180910390fd5b600180549050905090565b600080600260003373ffffffffffffffffffffffffffffffffffffffff1673ffffffffffffffffffffffffffffffffffffffff168152602001908152602001600020541115610695576001905061069a565b600090505b905600a165627a7a72305820d880b06b1f8088a27c3371bb48f4b66a3bc86db1e758498b012f736933b40e280029",
  "source": "pragma solidity ^0.4.24;\n\ncontract CryptoLotto {\n    constructor() public {\n        owner = msg.sender;\n    }\n\n    address owner;\n    address[] public lotteryContestantsAddresses;\n    mapping (address => uint) lotteryContestantsMap;\n\n    modifier isOwner() {\n        require(\n            msg.sender == owner,\n            \"This address is not the owner of this contract. Therefore, this address does not have access to this function\"\n        );\n        _;\n    }\n    \n    modifier onlyNewContestant {\n        require(\n            lotteryContestantsMap[msg.sender] == 0, \n            \"This address is already submitted in the lottery\"\n        );\n        _;\n    }\n    \n    function createLotteryContestant() public onlyNewContestant{\n        uint len = lotteryContestantsAddresses.push(msg.sender);\n        lotteryContestantsMap[msg.sender] = len;\n    }\n\n    function getLotteryContestantsAddressesLength() public view isOwner returns (uint) {\n        return lotteryContestantsAddresses.length;\n    }\n\n    function getLotteryContestantAddress(uint i) public view isOwner returns (address) {\n        return lotteryContestantsAddresses[i];\n    }\n\n    function isAddressInLottery() public view returns (bool) {\n        if (lotteryContestantsMap[msg.sender] > 0) {\n            return true;\n        } else {\n            return false;\n        }\n    }\n}",
  "sourcePath": "/home/tomer/crypto-lotto/contracts/CryptoLotto.sol",
  "compiler": {
    "name": "solc",
    "version": "0.4.24+commit.e67f0147.Emscripten.clang"
  },
  "schemaVersion": "2.0.1",
  "updatedAt": "2018-10-03T19:37:09.133Z"
}