{
  "contractName": "CryptoLotto",
  "abi": [
    {
      "constant": true,
      "inputs": [
        {
          "name": "",
          "type": "uint256"
        }
      ],
      "name": "lotteryContestants",
      "outputs": [
        {
          "name": "lotteryContestantAddress",
          "type": "address"
        },
        {
          "name": "doesExist",
          "type": "bool"
        }
      ],
      "payable": false,
      "stateMutability": "view",
      "type": "function"
    },
    {
      "constant": false,
      "inputs": [],
      "name": "addLotteryContestant",
      "outputs": [],
      "payable": false,
      "stateMutability": "nonpayable",
      "type": "function"
    },
    {
      "constant": true,
      "inputs": [],
      "name": "getLotteryContestantsLength",
      "outputs": [
        {
          "name": "",
          "type": "uint256"
        }
      ],
      "payable": false,
      "stateMutability": "view",
      "type": "function"
    },
    {
      "constant": true,
      "inputs": [
        {
          "name": "i",
          "type": "uint256"
        }
      ],
      "name": "getLotteryContestantAddress",
      "outputs": [
        {
          "name": "",
          "type": "address"
        }
      ],
      "payable": false,
      "stateMutability": "view",
      "type": "function"
    }
  ],
  "bytecode": "0x608060405234801561001057600080fd5b5061042b806100206000396000f300608060405260043610610062576000357c0100000000000000000000000000000000000000000000000000000000900463ffffffff1680633da32397146100675780636015dc5c146100d45780637171e73d146100eb578063d64a3d9114610163575b600080fd5b34801561007357600080fd5b506100926004803603810190808035906020019092919050505061018e565b604051808273ffffffffffffffffffffffffffffffffffffffff1673ffffffffffffffffffffffffffffffffffffffff16815260200191505060405180910390f35b3480156100e057600080fd5b506100e96101d3565b005b3480156100f757600080fd5b5061011660048036038101908080359060200190929190505050610397565b604051808373ffffffffffffffffffffffffffffffffffffffff1673ffffffffffffffffffffffffffffffffffffffff168152602001821515151581526020019250505060405180910390f35b34801561016f57600080fd5b506101786103f3565b6040518082815260200191505060405180910390f35b6000808281548110151561019e57fe5b9060005260206000200160000160009054906101000a900473ffffffffffffffffffffffffffffffffffffffff169050919050565b6000806000339250600191506001600060408051908101604052808673ffffffffffffffffffffffffffffffffffffffff16815260200185151581525090806001815401808255809150509060018203906000526020600020016000909192909190915060008201518160000160006101000a81548173ffffffffffffffffffffffffffffffffffffffff021916908373ffffffffffffffffffffffffffffffffffffffff16021790555060208201518160000160146101000a81548160ff02191690831515021790555050500390506000818154811015156102b257fe5b90600052602060002001600160003373ffffffffffffffffffffffffffffffffffffffff1673ffffffffffffffffffffffffffffffffffffffff1681526020019081526020016000206000820160009054906101000a900473ffffffffffffffffffffffffffffffffffffffff168160000160006101000a81548173ffffffffffffffffffffffffffffffffffffffff021916908373ffffffffffffffffffffffffffffffffffffffff1602179055506000820160149054906101000a900460ff168160000160146101000a81548160ff021916908315150217905550905050505050565b6000818154811015156103a657fe5b906000526020600020016000915090508060000160009054906101000a900473ffffffffffffffffffffffffffffffffffffffff16908060000160149054906101000a900460ff16905082565b600080805490509050905600a165627a7a72305820a7ee30f644dffacc01e6602bf3a7f18a2ae0ba987e6949594e3bc19d0d46c8120029",
  "source": "pragma solidity ^0.4.24;\n\ncontract CryptoLotto {\n    struct LotteryContestant {\n        address lotteryContestantAddress;\n        bool doesExist;\n    }\n    \n    LotteryContestant[] public lotteryContestants;\n    mapping (address => LotteryContestant) LotteryContestantsMap;\n    \n    modifier onlyNewContestant {\n        require(\n            !LotteryContestantsMap[msg.sender].doesExist, \n            \"This address is already submitted in the lottery\"\n        );\n        _;\n    }\n    \n    function addLotteryContestant() public {\n        address _lotteryContestantAddress = msg.sender;\n        bool _doesExist = true;\n        uint index = lotteryContestants.push(LotteryContestant(_lotteryContestantAddress, _doesExist)) - 1;\n        LotteryContestantsMap[msg.sender] = lotteryContestants[index];\n    }\n\n    function getLotteryContestantsLength() public view returns (uint) {\n        return lotteryContestants.length;\n    }\n\n    function getLotteryContestantAddress(uint i) public view returns (address) {\n        return lotteryContestants[i].lotteryContestantAddress;\n    }\n}",
  "sourcePath": "/home/tomer/crypto-lotto/contracts/CryptoLotto.sol",
  "compiler": {
    "name": "solc",
    "version": "0.4.24+commit.e67f0147.Emscripten.clang"
  },
  "schemaVersion": "2.0.1",
  "updatedAt": "2018-10-01T23:09:47.134Z"
}