{
  "contractName": "CryptoLottoPayouts",
  "abi": [
    {
      "constant": true,
      "inputs": [
        {
          "name": "i",
          "type": "uint256"
        }
      ],
      "name": "getLotteryContestantAddress",
      "outputs": [
        {
          "name": "",
          "type": "address"
        }
      ],
      "payable": false,
      "stateMutability": "view",
      "type": "function"
    },
    {
      "constant": true,
      "inputs": [
        {
          "name": "",
          "type": "uint256"
        }
      ],
      "name": "lotteryContestantsAddresses",
      "outputs": [
        {
          "name": "",
          "type": "address"
        }
      ],
      "payable": false,
      "stateMutability": "view",
      "type": "function"
    },
    {
      "constant": false,
      "inputs": [],
      "name": "createLotteryContestant",
      "outputs": [],
      "payable": false,
      "stateMutability": "nonpayable",
      "type": "function"
    },
    {
      "constant": true,
      "inputs": [],
      "name": "getLotteryContestantsAddressesLength",
      "outputs": [
        {
          "name": "",
          "type": "uint256"
        }
      ],
      "payable": false,
      "stateMutability": "view",
      "type": "function"
    },
    {
      "constant": true,
      "inputs": [],
      "name": "isAddressInLottery",
      "outputs": [
        {
          "name": "",
          "type": "bool"
        }
      ],
      "payable": false,
      "stateMutability": "view",
      "type": "function"
    },
    {
      "constant": false,
      "inputs": [],
      "name": "setFuncExecutedTime",
      "outputs": [],
      "payable": false,
      "stateMutability": "nonpayable",
      "type": "function"
    }
  ],
  "bytecode": "0x6080604052336000806101000a81548173ffffffffffffffffffffffffffffffffffffffff021916908373ffffffffffffffffffffffffffffffffffffffff1602179055506106f4806100536000396000f300608060405260043610610078576000357c0100000000000000000000000000000000000000000000000000000000900463ffffffff1680633da323971461007d578063497825d8146100ea578063672c118214610157578063d917f3961461016e578063f2446acc14610185578063f8ec0a47146101b0575b600080fd5b34801561008957600080fd5b506100a8600480360381019080803590602001909291905050506101df565b604051808273ffffffffffffffffffffffffffffffffffffffff1673ffffffffffffffffffffffffffffffffffffffff16815260200191505060405180910390f35b3480156100f657600080fd5b5061011560048036038101908080359060200190929190505050610358565b604051808273ffffffffffffffffffffffffffffffffffffffff1673ffffffffffffffffffffffffffffffffffffffff16815260200191505060405180910390f35b34801561016357600080fd5b5061016c610396565b005b34801561017a57600080fd5b50610183610522565b005b34801561019157600080fd5b5061019a61052b565b6040518082815260200191505060405180910390f35b3480156101bc57600080fd5b506101c561066e565b604051808215151515815260200191505060405180910390f35b60008060009054906101000a900473ffffffffffffffffffffffffffffffffffffffff1673ffffffffffffffffffffffffffffffffffffffff163373ffffffffffffffffffffffffffffffffffffffff16141515610317576040517f08c379a000000000000000000000000000000000000000000000000000000000815260040180806020018281038252606d8152602001807f546869732061646472657373206973206e6f7420746865206f776e6572206f6681526020017f207468697320636f6e74726163742e205468657265666f72652c20746869732081526020017f6164647265737320646f6573206e6f7420686176652061636365737320746f2081526020017f746869732066756e6374696f6e0000000000000000000000000000000000000081525060800191505060405180910390fd5b60018281548110151561032657fe5b9060005260206000200160009054906101000a900473ffffffffffffffffffffffffffffffffffffffff169050919050565b60018181548110151561036757fe5b906000526020600020016000915054906101000a900473ffffffffffffffffffffffffffffffffffffffff1681565b600080600260003373ffffffffffffffffffffffffffffffffffffffff1673ffffffffffffffffffffffffffffffffffffffff16815260200190815260200160002054141515610474576040517f08c379a00000000000000000000000000000000000000000000000000000000081526004018080602001828103825260308152602001807f54686973206164647265737320697320616c7265616479207375626d6974746581526020017f6420696e20746865206c6f74746572790000000000000000000000000000000081525060400191505060405180910390fd5b60013390806001815401808255809150509060018203906000526020600020016000909192909190916101000a81548173ffffffffffffffffffffffffffffffffffffffff021916908373ffffffffffffffffffffffffffffffffffffffff160217905550905080600260003373ffffffffffffffffffffffffffffffffffffffff1673ffffffffffffffffffffffffffffffffffffffff1681526020019081526020016000208190555050565b42600381905550565b60008060009054906101000a900473ffffffffffffffffffffffffffffffffffffffff1673ffffffffffffffffffffffffffffffffffffffff163373ffffffffffffffffffffffffffffffffffffffff16141515610663576040517f08c379a000000000000000000000000000000000000000000000000000000000815260040180806020018281038252606d8152602001807f546869732061646472657373206973206e6f7420746865206f776e6572206f6681526020017f207468697320636f6e74726163742e205468657265666f72652c20746869732081526020017f6164647265737320646f6573206e6f7420686176652061636365737320746f2081526020017f746869732066756e6374696f6e0000000000000000000000000000000000000081525060800191505060405180910390fd5b600180549050905090565b600080600260003373ffffffffffffffffffffffffffffffffffffffff1673ffffffffffffffffffffffffffffffffffffffff1681526020019081526020016000205411156106c057600190506106c5565b600090505b905600a165627a7a72305820b9901518336af0f5a5b3fb528d83321202846912b1db0e66d9e70c208899b2fc0029",
  "source": "pragma solidity ^0.4.24;\nimport \"./CryptoLotto.sol\";\n\ncontract CryptoLottoPayouts is CryptoLotto {\n    uint funcExecutedTime;\n\n    function setFuncExecutedTime() public {\n        funcExecutedTime = now;\n    }\n}",
  "sourcePath": "/home/tomer/crypto-lotto/contracts/CryptoLottoPayouts.sol",
  "compiler": {
    "name": "solc",
    "version": "0.4.24+commit.e67f0147.Emscripten.clang"
  },
  "schemaVersion": "2.0.1",
  "updatedAt": "2018-10-02T19:35:44.812Z"
}