{
  "contractName": "TicTakTo",
  "abi": [
    {
      "constant": true,
      "inputs": [],
      "name": "gameInProgress",
      "outputs": [
        {
          "name": "",
          "type": "bool"
        }
      ],
      "payable": false,
      "stateMutability": "view",
      "type": "function"
    },
    {
      "constant": true,
      "inputs": [],
      "name": "isPlayerOnesTurn",
      "outputs": [
        {
          "name": "",
          "type": "bool"
        }
      ],
      "payable": false,
      "stateMutability": "view",
      "type": "function"
    },
    {
      "anonymous": false,
      "inputs": [
        {
          "indexed": false,
          "name": "player",
          "type": "uint8"
        }
      ],
      "name": "Winner",
      "type": "event"
    },
    {
      "anonymous": false,
      "inputs": [
        {
          "indexed": false,
          "name": "move",
          "type": "uint8"
        },
        {
          "indexed": false,
          "name": "player",
          "type": "uint8"
        }
      ],
      "name": "NewMove",
      "type": "event"
    },
    {
      "constant": false,
      "inputs": [
        {
          "name": "place",
          "type": "uint8"
        }
      ],
      "name": "move",
      "outputs": [],
      "payable": false,
      "stateMutability": "nonpayable",
      "type": "function"
    },
    {
      "constant": true,
      "inputs": [
        {
          "name": "place",
          "type": "uint8"
        }
      ],
      "name": "getMove",
      "outputs": [
        {
          "name": "",
          "type": "uint256"
        }
      ],
      "payable": false,
      "stateMutability": "view",
      "type": "function"
    },
    {
      "constant": false,
      "inputs": [],
      "name": "startGame",
      "outputs": [],
      "payable": false,
      "stateMutability": "nonpayable",
      "type": "function"
    }
  ],
  "bytecode": "0x608060405260016000806101000a81548160ff021916908360ff1602179055506002600060016101000a81548160ff021916908360ff160217905550600960405190808252806020026020018201604052801561006b5781602001602082028038833980820191505090505b5060019080519060200190610081929190610218565b5061010060405190810160405280606060405190810160405280600060ff168152602001600160ff168152602001600260ff168152508152602001606060405190810160405280600360ff168152602001600460ff168152602001600560ff168152508152602001606060405190810160405280600660ff168152602001600760ff168152602001600860ff168152508152602001606060405190810160405280600060ff168152602001600360ff168152602001600660ff168152508152602001606060405190810160405280600160ff168152602001600460ff168152602001600760ff168152508152602001606060405190810160405280600260ff168152602001600560ff168152602001600860ff168152508152602001606060405190810160405280600060ff168152602001600460ff168152602001600860ff168152508152602001606060405190810160405280600260ff168152602001600460ff168152602001600660ff168152508152506002906008610205929190610265565b5034801561021257600080fd5b50610384565b828054828255906000526020600020908101928215610254579160200282015b82811115610253578251825591602001919060010190610238565b5b50905061026191906102c0565b5090565b8280548282559060005260206000209081019282156102af579160200282015b828111156102ae5782518290600361029e9291906102e5565b5091602001919060010190610285565b5b5090506102bc9190610337565b5090565b6102e291905b808211156102de5760008160009055506001016102c6565b5090565b90565b828054828255906000526020600020908101928215610326579160200282015b82811115610325578251829060ff16905591602001919060010190610305565b5b50905061033391906102c0565b5090565b61036091905b8082111561035c57600081816103539190610363565b5060010161033d565b5090565b90565b508054600082559060005260206000209081019061038191906102c0565b50565b610701806103936000396000f30060806040526004361061006d576000357c0100000000000000000000000000000000000000000000000000000000900463ffffffff1680632c0aad3f146100725780633fb64e75146100b657806370e87aaf146100e5578063739fb4a814610115578063d65ab5f214610144575b600080fd5b34801561007e57600080fd5b506100a0600480360381019080803560ff16906020019092919050505061015b565b6040518082815260200191505060405180910390f35b3480156100c257600080fd5b506100cb610181565b604051808215151515815260200191505060405180910390f35b3480156100f157600080fd5b50610113600480360381019080803560ff169060200190929190505050610194565b005b34801561012157600080fd5b5061012a6103bb565b604051808215151515815260200191505060405180910390f35b34801561015057600080fd5b506101596103ce565b005b600060018260ff1681548110151561016f57fe5b90600052602060002001549050919050565b600060039054906101000a900460ff1681565b600081600060029054906101000a900460ff16151515610242576040517f08c379a00000000000000000000000000000000000000000000000000000000081526004018080602001828103825260348152602001807f5468652067616d6520697320636f6d706c65746520616e64206e6f206d6f726581526020017f206d6f7665732063616e20626520706c6179656400000000000000000000000081525060400191505060405180910390fd5b600060018260ff1681548110151561025657fe5b90600052602060002001541415156102d6576040517f08c379a000000000000000000000000000000000000000000000000000000000815260040180806020018281038252601f8152602001807f54686973206d6f76652068617320616c7265616479206265656e206d6164650081525060200191505060405180910390fd5b600060049054906101000a900460ff1615610301576000809054906101000a900460ff169150610314565b600060019054906101000a900460ff1691505b8160ff1660018460ff1681548110151561032a57fe5b90600052602060002001819055507fab5d29015ff14375a6b047da2ff1b10e7b214316b692aefc028cbddc829854808383604051808360ff1660ff1681526020018260ff1660ff1681526020019250505060405180910390a1600060049054906101000a900460ff1615600060046101000a81548160ff0219169083151502179055506103b682610467565b505050565b600060049054906101000a900460ff1681565b60008060026101000a81548160ff0219169083151502179055506001600060036101000a81548160ff0219169083151502179055506001600060046101000a81548160ff021916908315150217905550600960405190808252806020026020018201604052801561044e5781602001602082028038833980820191505090505b5060019080519060200190610464929190610663565b50565b60006060600091505b600882101561065e5760028281548110151561048857fe5b906000526020600020018054806020026020016040519081016040528092919081815260200182805480156104dc57602002820191906000526020600020905b8154815260200190600101908083116104c8575b50505050509050600060018260008151811015156104f657fe5b9060200190602002015181548110151561050c57fe5b9060005260206000200154141580156105865750600181600181518110151561053157fe5b9060200190602002015181548110151561054757fe5b9060005260206000200154600182600081518110151561056357fe5b9060200190602002015181548110151561057957fe5b9060005260206000200154145b80156105f35750600181600281518110151561059e57fe5b906020019060200201518154811015156105b457fe5b906000526020600020015460018260008151811015156105d057fe5b906020019060200201518154811015156105e657fe5b9060005260206000200154145b15610651577f95203fbf57fb7c01968a95795ed643f953b7afbabc122e35b74262265aa6093e83604051808260ff1660ff16815260200191505060405180910390a16001600060026101000a81548160ff0219169083151502179055505b8180600101925050610470565b505050565b82805482825590600052602060002090810192821561069f579160200282015b8281111561069e578251825591602001919060010190610683565b5b5090506106ac91906106b0565b5090565b6106d291905b808211156106ce5760008160009055506001016106b6565b5090565b905600a165627a7a723058207580a9abfdaf90ee47e2386044b11d3440554a4e916cc287c0dea67f47fcb4870029",
  "source": "pragma solidity ^0.4.24;\n\ncontract TicTakTo {\n    event Winner(uint8 player);\n    event NewMove(uint8 move, uint8 player);\n\n    uint8 playerOne = 1;\n    uint8 playerTwo = 2;\n    \n    bool gameDone;\n    bool public gameInProgress;\n    bool public isPlayerOnesTurn;\n    \n    uint[] board = new uint[](9);\n    uint[][] winStates = [\n        [0,1,2],[3,4,5],[6,7,8], \n        [0,3,6],[1,4,7],[2,5,8], \n        [0,4,8],[2,4,6]\n    ];\n\n    modifier legalMove(uint8 place) {\n        require(\n            !gameDone,\n            \"The game is complete and no more moves can be played\"\n        );\n\n        require(\n            board[place] == 0,\n            \"This move has already been made\"\n        );\n        \n        _;\n    }\n\n    function move(uint8 place) public legalMove(place) {\n        uint8 player;\n        if (isPlayerOnesTurn) player = playerOne;\n        else player = playerTwo;\n        \n        board[place] = player;\n        emit NewMove(place, player);\n        isPlayerOnesTurn = !isPlayerOnesTurn;\n        _checkWinner(player);\n    }\n\n    function _checkWinner(uint8 player) internal {\n        for (uint i = 0; i < 8; i++) {\n            uint[] memory b = winStates[i];\n            \n            if (\n                board[b[0]] != 0 && \n                board[b[0]] == board[b[1]] && \n                board[b[0]] == board[b[2]]\n            ) {\n                emit Winner(player);\n                gameDone = true;\n            } \n        }\n    }\n\n    function getMove(uint8 place) public view returns (uint) {\n        return board[place];\n    }\n\n    function startGame() public {\n        gameDone = false;\n        gameInProgress = true;\n        isPlayerOnesTurn = true;\n        board = new uint[](9);\n        // for (uint i = 0; i < 9; i++) {\n\n        // }\n    }\n}",
  "sourcePath": "/home/tomer/crypto-lotto/contracts/TicTakTo.sol",
  "compiler": {
    "name": "solc",
    "version": "0.4.24+commit.e67f0147.Emscripten.clang"
  },
  "schemaVersion": "2.0.1",
  "updatedAt": "2018-10-03T21:36:22.164Z"
}