{
  "contractName": "TicTakTo",
  "abi": [
    {
      "constant": true,
      "inputs": [
        {
          "name": "",
          "type": "uint8"
        },
        {
          "name": "",
          "type": "uint256"
        }
      ],
      "name": "playerMoveMapper",
      "outputs": [
        {
          "name": "",
          "type": "uint8"
        }
      ],
      "payable": false,
      "stateMutability": "view",
      "type": "function"
    },
    {
      "constant": false,
      "inputs": [
        {
          "name": "place",
          "type": "uint8"
        },
        {
          "name": "player",
          "type": "uint8"
        }
      ],
      "name": "move",
      "outputs": [],
      "payable": false,
      "stateMutability": "nonpayable",
      "type": "function"
    },
    {
      "constant": true,
      "inputs": [],
      "name": "getPlayersMoveLength",
      "outputs": [
        {
          "name": "",
          "type": "uint256"
        },
        {
          "name": "",
          "type": "uint256"
        }
      ],
      "payable": false,
      "stateMutability": "view",
      "type": "function"
    },
    {
      "constant": true,
      "inputs": [
        {
          "name": "i",
          "type": "uint8"
        },
        {
          "name": "player",
          "type": "uint8"
        }
      ],
      "name": "getPlayerMove",
      "outputs": [
        {
          "name": "",
          "type": "uint8"
        }
      ],
      "payable": false,
      "stateMutability": "view",
      "type": "function"
    }
  ],
  "bytecode": "0x608060405260016000806101000a81548160ff021916908360ff1602179055506002600060016101000a81548160ff021916908360ff16021790555061010060405190810160405280606060405190810160405280600060ff168152602001600160ff168152602001600260ff168152508152602001606060405190810160405280600360ff168152602001600460ff168152602001600560ff168152508152602001606060405190810160405280600660ff168152602001600760ff168152602001600860ff168152508152602001606060405190810160405280600060ff168152602001600360ff168152602001600660ff168152508152602001606060405190810160405280600160ff168152602001600460ff168152602001600760ff168152508152602001606060405190810160405280600260ff168152602001600560ff168152602001600860ff168152508152602001606060405190810160405280600060ff168152602001600460ff168152602001600860ff168152508152602001606060405190810160405280600260ff168152602001600460ff168152602001600660ff1681525081525060039060086101be9291906101d1565b503480156101cb57600080fd5b506102f0565b82805482825590600052602060002090810192821561021b579160200282015b8281111561021a5782518290600361020a92919061022c565b50916020019190600101906101f1565b5b509050610228919061027e565b5090565b82805482825590600052602060002090810192821561026d579160200282015b8281111561026c578251829060ff1690559160200191906001019061024c565b5b50905061027a91906102aa565b5090565b6102a791905b808211156102a3576000818161029a91906102cf565b50600101610284565b5090565b90565b6102cc91905b808211156102c85760008160009055506001016102b0565b5090565b90565b50805460008255906000526020600020908101906102ed91906102aa565b50565b6103d5806102ff6000396000f300608060405260043610610062576000357c0100000000000000000000000000000000000000000000000000000000900463ffffffff1680630e59bbbc146100675780634daa290a146100995780634e0b417d146100f0578063701bd98514610144575b600080fd5b34801561007357600080fd5b5061007c610181565b604051808381526020018281526020019250505060405180910390f35b3480156100a557600080fd5b506100d4600480360381019080803560ff169060200190929190803560ff1690602001909291905050506101e2565b604051808260ff1660ff16815260200191505060405180910390f35b3480156100fc57600080fd5b50610128600480360381019080803560ff16906020019092919080359060200190929190505050610235565b604051808260ff1660ff16815260200191505060405180910390f35b34801561015057600080fd5b5061017f600480360381019080803560ff169060200190929190803560ff169060200190929190505050610277565b005b600080600260008060009054906101000a900460ff1660ff1660ff16815260200190815260200160002080549050600260008060019054906101000a900460ff1660ff1660ff16815260200190815260200160002080549050915091509091565b6000600260008360ff1660ff1681526020019081526020016000208360ff1681548110151561020d57fe5b90600052602060002090602091828204019190069054906101000a900460ff16905092915050565b60026020528160005260406000208181548110151561025057fe5b9060005260206000209060209182820401919006915091509054906101000a900460ff1681565b81600160008260ff1660ff16815260200190815260200160002060009054906101000a900460ff16151515610314576040517f08c379a000000000000000000000000000000000000000000000000000000000815260040180806020018281038252601f8152602001807f54686973206d6f76652068617320616c7265616479206265656e206d6164650081525060200191505060405180910390fd5b60018060008560ff1660ff16815260200190815260200160002060006101000a81548160ff021916908315150217905550600260008360ff1660ff16815260200190815260200160002083908060018154018082558091505090600182039060005260206000209060209182820401919006909192909190916101000a81548160ff021916908360ff160217905550505050505600a165627a7a723058205596779627598670ff55f2b5f917b192b3c80014e0acedd3f8212540fb9bb8490029",
  "source": "pragma solidity ^0.4.24;\n\ncontract TicTakTo {\n    uint8 playerOne = 1;\n    uint8 playerTwo = 2;\n    mapping (uint8 => bool) moveMapper;\n    mapping (uint8 => uint8[]) public playerMoveMapper;\n    \n    uint[][] winStates = [\n        [0,1,2],[3,4,5],[6,7,8], \n        [0,3,6],[1,4,7],[2,5,8], \n        [0,4,8],[2,4,6]\n    ];\n\n    modifier legalMove(uint8 place) {\n        require(\n            !moveMapper[place],\n            \"This move has already been made\"\n        );\n        _;\n    }\n\n    function move(uint8 place, uint8 player) public legalMove(place) {\n        moveMapper[place] = true;\n        playerMoveMapper[player].push(place);\n    }\n\n    function getPlayersMoveLength() public view returns (uint, uint) {\n        return (\n            playerMoveMapper[playerOne].length,\n            playerMoveMapper[playerTwo].length\n        );\n    }\n\n    function getPlayerMove(uint8 i, uint8 player) public view returns (uint8) {\n        return playerMoveMapper[player][i];\n    }\n}",
  "sourcePath": "/home/tomer/crypto-lotto/contracts/TicTakTo.sol",
  "compiler": {
    "name": "solc",
    "version": "0.4.24+commit.e67f0147.Emscripten.clang"
  },
  "schemaVersion": "2.0.1",
  "updatedAt": "2018-10-02T22:10:42.285Z"
}